:020000040800F2
:100000008819002075160008D1160008D1160008BE
:10001000D1160008D1160008D11600080000000013
:10002000000000000000000000000000D1160008E1
:10003000D116000800000000D1160008D1160008F3
:10004000D1160008D1160008D1160008D1160008F4
:10005000D1160008D1160008D1160008D1160008E4
:10006000D1160008D1160008D1160008D1160008D4
:10007000D1160008D1160008D1160008D1160008C4
:10008000D1160008D1160008D1160008D1160008B4
:10009000D1160008D1160008D1160008D1160008A4
:1000A000D1160008D1160008D1160008D116000894
:1000B000D1160008D1160008D1160008D116000884
:1000C000D1160008D1160008D1160008D116000874
:1000D000D1160008D1160008D1160008D116000864
:1000E000D1160008D1160008552E0008D1160008B8
:1000F000D1160008D1160008D1160008D116000844
:10010000D1160008D1160008D1160008D116000833
:10011000D1160008D1160008D1160008D116000823
:10012000D1160008D1160008D1160008D116000813
:10013000D1160008D1160008D1160008D116000803
:10014000D1160008D1160008D1160008652E000847
:10015000D1160008D1160008D1160008D1160008E3
:10016000D1160008D1160008D1160008D1160008D3
:10017000D1160008D1160008D1160008D1160008C3
:10018000D1160008D116000880B485B000AF7860A1
:100190000023FB607B68DB684FF0FF325A607B68AE
:1001A000DB686FF080425A61FB7B43F08003FB7396
:1001B0007B7B43F008037B737B68DB68FA689A619A
:1001C00000BF1437BD4680BC704700BF80B586B005
:1001D00000AF78600023FB7400237B610023FB6089
:1001E000032002F003FE7B68DB681B69FB607B6910
:1001F00001337B617B69184A934201D9002326E0D1
:10020000FB68C3F3C073DBB2002BE9D000237B6132
:10021000FB6843F00103FB607B68DB68FA681A61E6
:100220007B68DB681B69FB607B6901337B617B69F1
:10023000094A934206D8FB68C3F30003DBB2012BE3
:10024000EED000E000BF032002F0D0FDFB7C18469A
:100250001837BD4680BD00BF400D030080B489B093
:1002600000AFF860B96011461A460B46FB711346A1
:10027000BB800023FB76FB68DB78002B22D10023B8
:100280007B610023FB61BB880333002B00DA03335F
:100290009B107B61FB79FA6832339B0013449B68A7
:1002A0003B610023FB6109E0BB681A683B691A6087
:1002B000FB690133FB61BB680433BB60FA697B698E
:1002C0009A42F1D3FB7E18462437BD4680BC704766
:1002D00080B489B000AFF860B9601346FB8000239A
:1002E000FB61FB880333002B00DA03339B10BB61F7
:1002F000FB68D3F8D0307B610023FB6109E07B69A8
:100300001A68BB681A60FB690133FB61BB68043380
:10031000BB60FA69BB699A42F1D3BB6818462437BF
:10032000BD4680BC704700BF80B487B000AF786026
:100330000B46FB7000233B610023FB737B680022AC
:10034000DA707B6801229A707B6840229A80FB7881
:10035000012B13D14FF0A0433B617B680122DA727D
:100360007B6808221A707B6804225A707B684FF4FD
:10037000A072DA807B6802221A7211E0FB78002BEF
:100380000ED1454B3B617B680022DA727B680C2200
:100390001A707B6806225A707B684FF4A062DA807C
:1003A0003A697B68DA603B6903F500631A467B684B
:1003B0001A6100237B611CE07B695A013B6913448D
:1003C00003F5106319467A687B6904339B00134474
:1003D00099607B695A013B69134403F53063194600
:1003E0007A687B6914339B00134459607B6901333D
:1003F0007B617B685B781A467B699A42DCD83B69F3
:1004000003F580631A467B685A613B6903F588638C
:100410001A467B68C3F8CC2000237B610FE07B6920
:100420005A013B69134403F5A06319467A687B6956
:1004300022339B00134499607B6901337B617B68A5
:100440001B781A467B699A42E9D800237B610FE04A
:100450007B691A033B69134403F5805319467A6894
:100460007B6932339B00134499607B6901337B6164
:100470007B681B781A467B699A42E9D83B6903F589
:1004800060631A467B68C3F80C21FB7B18461C3757
:10049000BD4680BC704700BF0000044080B586B0F8
:1004A00000AF78600023FB7500233B610023FB60F5
:1004B0000023BB607B681B7A012B42D17B68DB6821
:1004C0009B6BFB60BB7B6FF30003BB737B685B7A4A
:1004D000002B03D0BB7B43F01003BB737B68DB684E
:1004E000FA689A6300233B617B68DB68DB683B61E9
:1004F0003B7C6FF386133B74BB7C6FF38613BB743A
:10050000BB7C6FF34103BB74BB7C6FF3C303BB7451
:100510007B68DB683A69DA607868FFF757FE7B68CA
:10052000DB78012B3DD13B7A052262F344033B7219
:100530003B7A43F020033B727B68DB68BA689A60C1
:100540002FE07B68DB68DB683B613B7C43F040036A
:100550003B747B68DB683A69DA607868FFF736FEDF
:100560000023FB60BB7B43F00103BB73BB7B43F009
:100570000403BB73BB7B43F00803BB73BB7B43F03B
:100580002003BB737B685B7A002B03D0BB7B43F0FB
:100590001003BB737B68DB68FA689A63142002F06F
:1005A00049FC7B68DB78012B10D17B68DB689B689A
:1005B000BB603B7A052262F344033B723B7A43F013
:1005C00020033B727B68DB68BA689A60FB7D184643
:1005D0001837BD4680BD00BF80B485B000AF7860DD
:1005E0000023FB730023BB603B7A43F001033B72A3
:1005F0007B68DB687A68D2689168BA680A439A6057
:10060000FB7B18461437BD4680BC704780B485B06C
:1006100000AF78600023FB730023BB603B7A43F09C
:1006200001033B727B68DB687A68D2689168BA68BC
:10063000D2430A409A60FB7B18461437BD4680BC03
:10064000704700BF80B586B000AF78603960002386
:10065000FB7400237B610023FB60FB6843F02003F5
:10066000FB603B68DBB203F01F03DAB2FB6862F3A6
:100670008A13FB607B68DB68FA681A617B68DB6859
:100680001B69FB607B6901337B617B69094A93428B
:1006900006D8FB68C3F34013DBB2012BEED000E0B9
:1006A00000BF032002F0A2FBFB7C18461837BD46B2
:1006B00080BD00BF400D030080B586B000AF7860FC
:1006C0000023FB7400237B610023FB60FB6843F085
:1006D0001003FB607B68DB68FA681A617B68DB6883
:1006E0001B69FB607B6901337B617B69094A93422B
:1006F00006D8FB68C3F30013DBB2012BEED000E099
:1007000000BF032002F072FBFB7C18461837BD4681
:1007100080BD00BF400D030080B584B000AF78609D
:100720000B46FB700023FB737B68DB68DB68BB60F8
:10073000FB7A6FF34513FB72FB7A6FF38613FB7240
:10074000FB78012B04D1FB7A43F02003FB7206E017
:10075000FB78002B03D1FB7A43F04003FB727B68EC
:10076000DB68BA68DA60322002F064FBFB7B184673
:100770001037BD4680BD00BF80B483B000AF786045
:100780007B68DB685B6903F0010318460C37BD46E4
:1007900080BC704780B582B000AF78607868FFF7A2
:1007A000EBFF0346012B14BF01230023DBB21846E5
:1007B0000837BD4680BD00BF80B485B000AF78600B
:1007C0000023FB607B68DB685B69FB607B68DB6840
:1007D0009B69FA681340FB60FB6818461437BD46F6
:1007E00080BC704780B485B000AF78600B46FB706A
:1007F0007B681B691B68FB60FB7803F00303DAB2BC
:100800003B7B62F301033B737B681B69FA681A60E8
:1008100000BF1437BD4680BC704700BF80B58CB0A8
:1008200000AF7860002387F82B3000237B62002321
:100830003B620023FB610023BB6100237B617B687B
:10084000D3F80C3100221A607B681B691B683B627D
:1008500097F821306FF3C40387F821307B681B6958
:100860003A6A1A607B68DB7A012B33D103217868FE
:10087000FFF7B8FF7B68DB6880225A622023FB8386
:100880008023BB837B68DB68FA699A62BA8BFB8B37
:1008900013449BB23B8380237B837B68DB68BA690C
:1008A000C3F804213A8B7B8B13449BB23B832023F8
:1008B0007B837B68DB68BA69C3F808213A8B7B8B42
:1008C00013449BB23B8300237B837B68DB68BA695C
:1008D000C3F80C2110217868FFF7B4FE7868FFF7A1
:1008E000EBFE7B681B6900221A617B681B69002292
:1008F0005A617B681B694FF0FF329A617B681B6904
:100900000022DA610023FB623AE07A68FB6A043372
:100910009B0013449B681B687B6297F8273023F089
:100920007F03DBB2002B0ED000237B6297F82730C9
:1009300043F0400387F8273097F8273043F0080347
:1009400087F8273001E000237B627A68FB6A043372
:100950009B0013449B687A6A1A607A68FB6A0433C6
:100960009B0013449B6800221A617A68FB6A043377
:100970009B0013449B68FF229A60FB6A0133FB6271
:100980007B685B781A46FB6A9A42BED80023FB62FA
:1009900035E07A68FB6A14339B0013445B681B687C
:1009A000FB60FB7B23F07F03DBB2002B0AD000232C
:1009B000FB60FB7B43F04003FB73FB7B43F00803CE
:1009C000FB7301E00023FB607A68FB6A14339B0031
:1009D00013445B68FA681A607A68FB6A14339B00F8
:1009E00013445B6800221A617A68FB6A14339B0027
:1009F00013445B68FF229A60FB6A0133FB627B68E9
:100A00005B781A46FB6A9A42C3D800237B617B7DE0
:100A100043F001037B757B681B697A681269116971
:100A20007A69D24311407A690A431A617B68DB789C
:100A3000012B1BD100233B613B7C43F001033B7442
:100A40003B7C43F002033B743B8A402262F38A03FF
:100A50003B82BB7C43F00103BB747B8A402262F380
:100A600049037B827B681B693A691A63786800F0E6
:100A700007F897F82B3018463037BD4680BD00BFC9
:100A800080B584B000AF78600023FB730023BB60A7
:100A90007B68DB6800229A617B68DB686FF08042CC
:100AA0005A617868FFF770FB7B68DB78002B03D115
:100AB0003B7A43F010033B727B7A43F008037B726E
:100AC0007B7A43F010037B727B7A43F020037B72C6
:100AD000BB7A43F00403BB72BB7A43F00803BB72DA
:100AE0003B7A43F008033B72BB7A43F01003BB72BE
:100AF000BB7A43F02003BB727B68DB687A68D268FC
:100B00009169BA68D2431140BA680A439A61FB7B83
:100B100018461037BD4680BD80B485B000AF786000
:100B20000023FB737B681B699B68BB603B7AC3F344
:100B30004103DBB2022B09D0032B04D0012B02D0DE
:100B40000323FB7305E00223FB7302E00123FB7325
:100B500000BFFB7B18461437BD4680BC704700BF02
:100B600080B487B000AF78600023FB750023BB60C2
:100B70007B681B699B683B617B689B691B68FB60AA
:100B80003B7CC3F34103DBB2022B04D0BB896FF380
:100B90000A03BB8105E0BB89032262F30A03BB8120
:100BA00000BF7B689B69FA681A607B7A43F0010397
:100BB0007B727B681B697A6812695168BA68D24394
:100BC0001140BA680A435A60FB7D18461C37BD467F
:100BD00080BC704780B487B000AF78603960002374
:100BE000FB740023FB600023BB603B685B78012B38
:100BF0000FD13B681B787A6804339B0013449B68D1
:100C00007B613B681B781A46012393409BB23B8172
:100C10000EE03B681B787A6814339B0013445B68D2
:100C20007B613B681B781A46012393409BB27B8112
:100C30007B691B68FB607B7B23F07F03DBB2002BAF
:100C400027D13B689B689BB2C3F30A039AB2BB8966
:100C500062F30A03BB813B68DB7803F00303DAB27B
:100C6000BB7B62F38303BB733B68DB88DBB203F0BF
:100C70000F03DAB2FB8962F38913FB81FB7B43F03C
:100C80001003FB737B7B43F080037B73FA687B6903
:100C90001A607B681B697A681269D169BA680A436D
:100CA000DA61FB7C18461C37BD4680BC704700BF2C
:100CB00080B487B000AF786039600023FB740023F4
:100CC000FB600023BB603B685B78012B0FD13B6866
:100CD0001B787A6804339B0013449B687B613B68F4
:100CE0001B781A46012393409BB23B810EE03B6880
:100CF0001B787A6814339B0013445B687B613B6804
:100D00001B781A46012393409BB27B817B7B6FF358
:100D1000C7137B73FA687B691A607B681B697A6802
:100D20001269D169BA68D2430A40DA61FB7C18467D
:100D30001C37BD4680BC704780B588B000AF786076
:100D400039600023FB770023BB6100237B61002314
:100D50003B613B685B78012B40F0AB803B681B78C4
:100D60007A6804339B0013449B681B687B613B6873
:100D70001B787A6804339B0013449B681B693B61B2
:100D80003B685B69002B09D13B696FF312033B6140
:100D90007B8A012262F3CC037B8222E03B685B69A1
:100DA000C3F312023B6962F312033B613B685A6969
:100DB0003B689B6813445A1E3B689B68B2FBF3F385
:100DC0009BB2C3F309039AB27B8A62F3CC037B82A2
:100DD0003B68DB78012B04D1FB7C012262F34613D4
:100DE000FB743B681B787A6804339B0013449B6850
:100DF0003A691A617B68DB78012B0AD13B681B7862
:100E00007A6804339B0013449B683A6812695A61FC
:100E100015E03B68DB78012B11D03B685B69002B48
:100E20000DD03B681B781A4601239340BB617B6859
:100E30001B697A681269516BBA690A435A633B6845
:100E4000DB78012B14D17B681B699B68FB60FB6816
:100E5000C3F30D239BB203F00103002B04D1FB7DF0
:100E600043F02003FB7503E0FB7D43F01003FB75AB
:100E7000FB7D43F00403FB75FB7D43F08003FB75B2
:100E80003B681B787A6804339B0013449B687A693B
:100E90001A603B68DB78012B40F089803B68D96899
:100EA0003B681A783B685B699BB27868FFF7D6F9B4
:100EB0007DE03B681B787A6814339B0013445B68C1
:100EC0001B687B613B681B787A6814339B00134472
:100ED0005B681B693B613B685B69002B0DD13B681C
:100EE0009B68C3F312023B6962F312033B617B8A86
:100EF000012262F3CC037B8220E03B685A693B68A5
:100F00009B6813445A1E3B689B68B2FBF3F39BB289
:100F1000C3F309039AB27B8A62F3CC037B827B8A98
:100F2000C3F3C9039BB21A463B689B6803FB02F3F9
:100F3000C3F312023B6962F312033B613B681B7807
:100F40007A6814339B0013445B683A691A617B68C2
:100F5000DB78012B09D13B681B787A6814339B003E
:100F600013445B683A6812695A613B68DB78012B6D
:100F70000CD13B685B79002B04D0FB7D43F0200350
:100F8000FB7503E0FB7D43F01003FB75FB7D43F035
:100F90000403FB75FB7D43F08003FB753B681B7806
:100FA0007A6814339B0013445B687A691A60FB7F8C
:100FB00018462037BD4680BD80B489B000AF786048
:100FC00039600023FB770023BB6100233B610023D2
:100FD000BB603B685B78012B70D17B689B697B6150
:100FE0007B691B683B617B691B69BB603B685B6914
:100FF000002B09D13B7A6FF306033B72BB7A0122C7
:1010000062F3C403BB7223E03B685A693B689B6888
:101010009A420ED93B689A683B685A613B689B6864
:10102000DBB203F07F03DAB23B7A62F306033B7272
:1010300009E03B685B69DBB203F07F03DAB23B7A1D
:1010400062F306033B72BB7A012262F3C403BB72F4
:10105000BA687B691A617B68DB78012B09D13B6830
:101060001B787A6804339B0013449B683A681269C2
:101070005A61FB7C43F00403FB74FB7C43F0800368
:10108000FB743A697B691A607B68DB78002B76D148
:101090003B685B69002B72D03B681B781A460123C2
:1010A00093401A46BB691343BB617B681B697A682E
:1010B0001269516BBA690A435A6360E03B681B7856
:1010C0007A6814339B0013445B681B683B613B6880
:1010D0001B787A6814339B0013445B681B69BB6000
:1010E0003B685B69002B0FD13B689B68DBB203F068
:1010F0007F03DAB23B7A62F306033B72BB7A0122CA
:1011000062F3C403BB7212E03B689A683B685A61A1
:101110003B689B68DBB203F07F03DAB23B7A62F391
:1011200006033B72BB7A012262F3C403BB723B68C5
:101130001B787A6814339B0013445B68BA681A61A1
:101140007B68DB78012B09D13B681B787A68143304
:101150009B0013445B683A6812695A61FB7C43F058
:101160000403FB74FB7C43F08003FB743B681B7837
:101170007A6814339B0013445B683A691A60FB7FFA
:1011800018462437BD4680BC704700BF80B487B086
:1011900000AF786039600023FB750023FB603B687B
:1011A0005B78012B1CD13B681B787A6804339B0069
:1011B00013449B683B613B691B68FB60FB7B23F02E
:1011C0007F03DBB2002B03D0FB7B43F04003FB73B8
:1011D000BB7B43F02003BB73FA683B691A6011E0E4
:1011E0003B681B787A6814339B0013445B683B614F
:1011F0003B691B68FB60BB7B43F02003BB73FA6851
:101200003B691A60FB7D18461C37BD4680BC7047A1
:1012100080B487B000AF786039600023FB7400238E
:10122000FB603B685B78012B08D13B681B787A68D0
:1012300004339B0013449B687B6107E03B681B7889
:101240007A6814339B0013445B687B617B691B687D
:10125000FB60BB7B6FF34513BB733B68DB78032BF1
:1012600003D03B68DB78022B03D1FB7B43F01003F8
:10127000FB73FA687B691A60FB7C18461C37BD4615
:1012800080BC704780B485B000AF78607B681B6914
:101290009B69FB607B681B69DB69FA681340FB6034
:1012A000FB681B0C18461437BD4680BC704700BF56
:1012B00080B485B000AF78600B46FB70FB787A682D
:1012C00014339B0013445B689B68FB607B681B695D
:1012D0005B69FA681340FB60FB6818461437BD462B
:1012E00080BC704780B485B000AF78607B681B69B4
:1012F0009B69FB607B681B69DB69FA681340FB60D4
:10130000FB689BB218461437BD4680BC704700BFCF
:1013100080B487B000AF786000233B61FB7C43F072
:10132000C003FB74BB7C012262F3C403BB743B7C2F
:10133000182262F306033B747B685B6D3A691A619D
:101340007B68DB78012B16D10023FB607B685B6D2B
:101350007A6802F2CC525A617B685B6D1B68FB6055
:10136000FB7B43F08003FB734FF08023FB607B68C3
:101370005B6DFA681A6000BF1C37BD4680BC7047C1
:1013800080B400AF034B05221A7000BFBD4680BC7D
:10139000704700BF0000002080B483B000AF034658
:1013A000FB71044B05221A7000BF0C37BD4680BC90
:1013B000704700BF0000002080B400AF034B06223E
:1013C0001A7000BFBD4680BC704700BF00000020FF
:1013D00080B400AF034B05221A7000BFBD4680BC2D
:1013E000704700BF0000002080B400AF034B05220F
:1013F0001A7000BFBD4680BC704700BF00000020CF
:1014000080B400AF034B05221A7000BFBD4680BCFC
:10141000704700BF0000002080B400AF034B0522DE
:101420001A7000BFBD4680BC704700BF000000209E
:1014300080B58AB000AF7860396000237B620023FA
:101440003B620023FB610023BB617B681B8A9BB26C
:101450007B627B6A23F440537B623B68DB881A46DD
:101460007B6A13437B627B6A9AB27B681A827B68D1
:101470009B899BB27B627B6A23F4B05323F00C03FD
:101480007B623B689A883B681B8913439AB23B682E
:101490005B8913439BB21A467B6A13437B627B6A68
:1014A0009AB27B689A817B689B8A9BB27B627B6ADB
:1014B00023F440737B623B689B891A467B6A134323
:1014C0007B627B6A9AB27B689A8207F108031846AE
:1014D00000F058FC7B68304A934203D07B682F4A67
:1014E000934202D17B693B6201E03B693B627B68CE
:1014F0009B899BB21BB2002B0CDA3A6A13469B0005
:1015000013449A001A443B681B685B00B2FBF3F378
:10151000FB610BE03A6A13469B0013449A001A449D
:101520003B681B689B00B2FBF3F3FB61FB691C4A41
:10153000A2FB03235B091B017B627B6A1B096422FC
:1015400002FB03F3FA69D31ABB617B689B899BB2E8
:101550001BB2002B0CDABB69DB003233104AA2FB52
:1015600003235B0903F007037A6A13437B620BE0F2
:10157000BB691B0132330A4AA2FB03235B0903F058
:101580000F037A6A13437B627B6A9AB27B681A8183
:1015900000BF2837BD4680BD001001400014014047
:1015A0001F85EB5180B483B000AF78600B46FB70B1
:1015B000FB78002B08D07B689B899BB243F40053D7
:1015C0009AB27B689A8107E07B689B899BB223F47F
:1015D00000539AB27B689A8100BF0C37BD4680BC2D
:1015E000704700BF80B487B000AF78600B467B8047
:1015F00013467B7000233B610023FB600023BB602C
:1016000000237B617B687B617B88DBB25B09DBB29B
:101610003B617B8803F01F03FB600122FB6802FA39
:1016200003F3BB603B69012B03D17B690C337B6106
:1016300009E03B69022B03D17B6910337B6102E037
:101640007B6914337B617B78002B06D07B697A69D8
:101650001168BA680A431A6006E07B697A69116802
:10166000BA68D2430A401A6000BF1C37BD4680BC2E
:10167000704700BF80B582B000AF104B7B60104B4D
:101680003B6007E03B681A1D3A607A68111D79607B
:1016900012681A603B680B4A9342F3D30A480B491D
:1016A0004FF000028842B8BF40F8042BFADB00F08C
:1016B000FDFA00BF0837BD4680BD00BFA64C00083C
:1016C0000000002044010020440100208811002077
:1016D00080B400AFFEE700BF80B584B000AFF86013
:1016E0007A603B600B46FB72F86801F00DFBF8680E
:1016F00000F01EF8FB683A68C3F8E425FB68BA6995
:10170000C3F8E825FB687A68C3F8EC25FB7A19462C
:10171000F86802F0C3FFFB68D3F8E8351B68984708
:10172000F86801F049FB00BF1037BD4680BD00BF1F
:1017300080B483B000AF7860002318460C37BD46F4
:1017400080BC704780B584B000AF786007F10803B3
:101750001946786801F066FF3B7A03F01F03012BFE
:101760000AD0022B0FD0002B14D107F10803194621
:10177000786801F081FB16E007F1080319467868E4
:1017800001F0CAFB0FE007F108031946786801F081
:10179000F7FB08E03B7A23F07F03DBB21946786859
:1017A00003F012F900BF002318461037BD4680BD74
:1017B00080B584B000AF78600B46FB70FB78002BDF
:1017C00044D17B6803F55D73FB607B6893F811314E
:1017D000032B4ED1FB68DA69FB689B689A4220D9DB
:1017E000FB68DA69FB689B68D21AFB68DA617B6880
:1017F000DB78012B06D1FB68DA68FB689B681A442A
:10180000FB68DA60FB68D968FB689A68FB68DB698B
:10181000934228BF13469BB21A46786803F0C2F978
:1018200027E07B68D3F8E4351B69002B0AD07B687E
:1018300093F81231032B05D17B68D3F8E4351B698B
:1018400078689847786803F0C1F912E07B68D3F8AC
:10185000E4359B69002B0CD07B6893F81231032B85
:1018600007D17B68D3F8E4359B69FA78114678682C
:101870009847002318461037BD4680BD80B584B018
:1018800000AF78600B46FB70FB78002B6BD17B6858
:1018900003F58E73FB607B6893F81131022B55D1F1
:1018A000FB68DA69FB689B689A421BD9FB68DA69B6
:1018B000FB689B68D21AFB68DA617B68DB78012BD6
:1018C00006D1FB68DA68FB689B681A44FB68DA603B
:1018D000FB68D968FB68DB699BB21A46786803F03D
:1018E0002DF933E0FB681B6AFA689268B3FBF2F1EA
:1018F00002FB01F29B1A002B14D1FB681A6AFB68E9
:101900009B689A420ED3FB681A6AFB685B6A9A422C
:1019100008D200220021786803F010F9FB68002249
:101920005A6213E07B68D3F8E435DB68002B0AD0F9
:101930007B6893F81231032B05D17B68D3F8E4352B
:10194000DB6878689847786803F058F97B6893F803
:101950001631012B1AD1786800F01EF87B6800223E
:1019600083F8162112E07B68D3F8E4355B69002B1D
:101970000CD07B6893F81231032B07D17B68D3F826
:10198000E4355B69FA781146786898470023184671
:101990001037BD4680BD00BF80B483B000AF786013
:1019A0007B681B69044A12685A60002318460C378A
:1019B000BD4680BC704700BF7401002080B582B076
:1019C00000AF7860002340220021786802F0EAFE30
:1019D000002340228021786802F0E4FE7B68012227
:1019E00083F812217B68D3F8E8355B687A689278CF
:1019F00010469847002318460837BD4680BD00BFF3
:101A000080B582B000AF78607B68D3F8E8351B6999
:101A100098477B6893F813217B6883F812217B68D1
:101A2000032283F81221002318460837BD4680BDE3
:101A300080B582B000AF78607B6893F812217B6834
:101A400083F813217B68042283F812217B68D3F882
:101A5000E835DB689847002318460837BD4680BD47
:101A600080B582B000AF78607B68D3F8E435DB697D
:101A7000002B05D07B68D3F8E435DB69786898479C
:101A8000002318460837BD4680BD00BF80B582B030
:101A900000AF78600B46FB707B68D3F8E4351B68B9
:101AA000FA781146786898477B68D3F8E8359B68E0
:101AB0009847002318460837BD4680BD80B582B0E0
:101AC00000AF78600B46FB707B68D3F8E4355B6849
:101AD000FA78114678689847002318460837BD46BB
:101AE00080BD00BF80B582B000AF78607B68D3F85E
:101AF000E4351B6A78689847002318460837BD46C6
:101B000080BD00BF80B582B000AF78607B68D3F83D
:101B1000E4355B6A78689847002318460837BD4665
:101B200080BD00BF80B588B000AF0121042000F067
:101B3000D3F901214FF4802000F00AFA07220A218C
:101B4000284800F0E9FE07220B21264800F0E4FEB9
:101B50004FF48063BB6102233B770023BB770123F3
:101B6000FB7702237B7707F1180319461D4800F025
:101B700045FE4FF40063BB6102233B7707F1180376
:101B80001946184800F03AFE4FF4E133BB600023D9
:101B9000BB810023FB8100233B820023BB820C23FB
:101BA0007B8207F1080319460F48FFF741FC01212A
:101BB0000D48FFF7F7FC012240F225510A48FFF7D4
:101BC00011FD27233B7102237B710223BB7101238B
:101BD000FB713B1D184602F001FD00BF2037BD46DA
:101BE00080BD00BF000802400048004080B588B0BA
:101BF00000AF0121042000F06FF90121202000F046
:101C0000C5F908220621274800F086FE0822072190
:101C1000244800F081FE4023BB6102233B77002370
:101C2000BB770123FB7702237B7707F11803194663
:101C30001C4800F0E3FD8023BB6102233B7707F1E2
:101C400018031946174800F0D9FD4FF4E133BB6083
:101C50000023BB810023FB8100233B820023BB8246
:101C60000C237B8207F1080319460F48FFF7E0FBBE
:101C700001210D48FFF796FC012240F225510A4848
:101C8000FFF7B0FC47233B7102237B710123BB713B
:101C90000123FB713B1D184602F0A0FC00BF20375A
:101CA000BD4680BD000802400014014080B582B0EE
:101CB00000AF00F081FF012000F02AF800BF00F023
:101CC00039F80346002BFAD000F0F4FCFFF72AFFA6
:101CD000FFF78CFF0B4B1B681A460B490B4800F0B3
:101CE0004BFC0A4BDBB2184600F046FDFB1D1846C4
:101CF00000F00CFD0346032BF8D1FB79184600F0E9
:101D00003BFDF3E7BC0000202C4C000878010020CC
:101D100080B483B000AF0346FB71054B00221A70FC
:101D2000034AFB79137000BF0C37BD4680BC704777
:101D30000238024080B582B000AF00233B60002330
:101D4000FB710023BB71312000F03EF90346BB71EB
:101D50003B6801333B603B68B3F5A06F02D0BB79B1
:101D6000002BF0D0312000F02FF90346002B02D0D9
:101D70000123FB7101E00023FB71FB791846083752
:101D8000BD4680BD80B489B000AF78600023BB61E0
:101D900000237B610023FB6102233B610023FB6086
:101DA0000223BB60484B9B6803F00C03BB61BB691B
:101DB000042B07D0082B09D0002B3FD17B68434A66
:101DC0001A603FE07B68424A1A603BE03E4B5B682A
:101DD00003F480039B0DFB603B4B5B6803F03F0308
:101DE000BB60FB68002B0DD0394ABB68B2FBF3F235
:101DF000354B596847F6C0730B409B0903FB02F350
:101E0000FB610CE0314ABB68B2FBF3F22E4B596820
:101E100047F6C0730B409B0903FB02F3FB612A4B9F
:101E20005B6803F440331B0C01335B003B61FA69D0
:101E30003B69B2FBF3F27B681A6003E07B68234ADC
:101E40001A6000BF204B9B6803F0F003BB61BB69C5
:101E50001B09BB611F4ABB6913441B78DBB27B6162
:101E60007B681A687B69DA407B685A60164B9B680E
:101E700003F4E053BB61BB699B0ABB61154ABB69B4
:101E800013441B78DBB27B617B685A687B69DA405C
:101E90007B689A600C4B9B6803F46043BB61BB6931
:101EA0005B0BBB610B4ABB6913441B78DBB27B61E4
:101EB0007B685A687B69DA407B68DA6000BF243748
:101EC000BD4680BC704700BF003802400024F400CB
:101ED00000127A005000002080B483B000AF786018
:101EE0000B46FB70FB78002B06D00949084B1A6B98
:101EF0007B6813430B6306E00549054B1A6B7B684F
:101F0000DB4313400B6300BF0C37BD4680BC7047FA
:101F10000038024080B483B000AF78600B46FB709D
:101F2000FB78002B06D00949084B5A6B7B6813439A
:101F30004B6306E00549054B5A6B7B68DB43134056
:101F40004B6300BF0C37BD4680BC70470038024071
:101F500080B483B000AF78600B46FB70FB78002B39
:101F600006D00949084B1A6C7B6813430B6406E0E2
:101F70000549054B1A6C7B68DB4313400B6400BFBB
:101F80000C37BD4680BC70470038024080B483B037
:101F900000AF78600B46FB70FB78002B06D0094938
:101FA000084B5A6C7B6813434B6406E00549054BAC
:101FB0005A6C7B68DB4313404B6400BF0C37BD4653
:101FC00080BC70470038024080B487B000AF034641
:101FD000FB710023FB6000237B610023FB74FB7912
:101FE0005B09DBB2FB60FB68012B03D1124B1B6862
:101FF0007B6109E0FB68022B03D10F4B1B6F7B61F8
:1020000002E00D4B5B6F7B61FB7903F01F03FB600C
:102010007A69FB6822FA03F303F00103002B02D074
:102020000123FB7401E00023FB74FB7C18461C3782
:10203000BD4680BC704700BF0038024080B483B00A
:1020400000AF78600B46FB707B68FA781A7001234A
:1020500018460C37BD4680BC704700BF80B485B0C1
:1020600000AF786039600023FB600AE07B685A1C8F
:102070007A603A68511C396012781A70FB68013333
:10208000FB603B681B78002BF0D1FB6818461437C7
:10209000BD4680BC704700BF80B586B000AFF86019
:1020A0007A603B600B46FB7200237B617B68013BDF
:1020B0007B603B68092B1DD93B681D4AA2FB0323AB
:1020C000DB08F97A7A68F868FFF7E6FF78617B69E0
:1020D000FA681344FB6010E0FB7A1946F868FFF7D2
:1020E000ADFFFB680133FB607B6901337B617B687B
:1020F000013B7B607B68002BEEDC39680C4BA3FB5B
:102100000123DA0813469B0013445B00CA1AD3B2BA
:102110003033DBB21946F868FFF790FF02467B695F
:1021200013447B617B6918461837BD4680BD00BFEC
:10213000CDCCCCCC80B586B000AFF8607A603B6087
:102140000B46FB7200237B613B68002B03DA3B6884
:102150005B423B6101E03B683B617B68013B7B602C
:102160003B69092B1FD93B68002B0CDA3B692E4ACF
:10217000A2FB0323DB085B42F97A7A68F868FFF771
:10218000D9FF78610AE03B69274AA2FB0323DB08F9
:10219000F97A7A68F868FFF7CDFF78617B69FA68A9
:1021A0001344FB6025E03B68002B11DA7B68013BA0
:1021B0007B600DE0FB7A1946F868FFF73FFFFB688C
:1021C0000133FB607B6901337B617B68013B7B6092
:1021D0007B68002BEEDC3B68002B0ADA2D21F868C7
:1021E000FFF72CFF02467B6913447B61FB680133D8
:1021F000FB6039690C4BA3FB0123DA0813469B00F3
:1022000013445B00CA1AD3B23033DBB21946F86804
:10221000FFF714FF02467B6913447B617B69184614
:102220001837BD4680BD00BFCDCCCCCC80B588B0C2
:1022300002AFF8607A601A460B46FB721346BB7217
:1022400000237B617B68013B7B603B6A1B09002BA1
:1022500020D03B6A1B09BA7AF97A009313467A6850
:10226000F868FFF7E3FF02467B6913447B617B69F3
:10227000FA681344FB6010E0FB7A1946F868FFF730
:10228000DDFEFB680133FB607B6901337B617B68AA
:10229000013B7B607B68002BEEDC3B6A03F00F03A5
:1022A000092B0BD83B6ADBB203F00F03DBB23033F0
:1022B000DBB21946F868FFF7C1FE19E0BB7A002BC4
:1022C0000BD03B6ADBB203F00F03DBB23733DBB278
:1022D0001946F868FFF7B2FE0AE03B6ADBB203F08A
:1022E0000F03DBB25733DBB21946F868FFF7A6FEDF
:1022F0007B6901337B617B6918461837BD4680BD19
:1023000080B58AB002AFF860B9607A603B600023A4
:10231000BB6100237B61FB68002B00F0FC80FB6845
:1023200000221A70F7E07B681B78252B0BD0FB6826
:102330005A1CFA607A68511C796012781A707B69AD
:1023400001337B61E7E07B6801331B78252B0BD1E0
:10235000FB685A1CFA6025221A707B6802337B6086
:102360007B6901337B61D6E02023FB770023BB77B9
:102370007B6801337B607B681B78302B14D1302362
:10238000FB777B6801337B600EE0BB7F1A469200CF
:1023900013445B00DAB27B681B781344DBB2303B3A
:1023A000BB777B6801337B607B681B782F2B03D95D
:1023B0007B681B78392BE8D9BA7F7B6913441A46AE
:1023C000BB689A4205D9BB68DAB27B69DBB2D31A23
:1023D000BB777B681B78583B202B00F28E8001A2D4
:1023E00052F823F0B5240008FB240008FB24000861
:1023F000FB240008FB240008FB240008FB24000841
:10240000FB240008FB240008FB240008FB24000830
:10241000E524000869240008FB240008FB240008C8
:10242000FB240008FB24000869240008FB240008A2
:10243000FB240008FB240008FB240008FB24000800
:10244000FB240008FB240008FB240008FB240008F0
:10245000D1240008FB24000881240008FB24000884
:10246000FB24000899240008B87F3B681A1D3A60D5
:102470001B68F97F0246F868FFF75CFEB8613FE031
:10248000B87F3B681A1D3A601B68F97F0246F868FE
:10249000FFF702FEB86133E0B87F3B681A1D3A606F
:1024A0001B68F97F009300230246F868FFF7BEFE21
:1024B000B86125E0B87F3B681A1D3A601B68F97F58
:1024C000009301230246F868FFF7B0FEB86117E0F9
:1024D0003B681A1D3A601B681946F868FFF7BEFD95
:1024E000B8610DE03B681A1D3A601B68DBB2194603
:1024F000F868FFF7A3FDB86102E04FF0FF3325E075
:102500007B6801337B60BB69FA681344FB607A69BE
:10251000BB6913447B617B681B78002B04D07A690C
:10252000BB689A42FFF4FFAE7A69BB689A4203D255
:10253000FB6800221A7008E0FB68013BFB60FB6847
:1025400000221A707B69013B7B617B69184620374A
:10255000BD4680BD80B584B000AFF860B9607A60D8
:102560007B68BA686421F868FFF7CAFE034618461C
:102570001037BD4680BD00BF0EB480B585B000AF3A
:10258000786007F12003BB60BA68F9697868FFF7E3
:10259000E1FFF860FB6818461437BD46BDE880408F
:1025A00003B0704780B483B000AF03463960FB715D
:1025B0003B6812221A80034B18460C37BD4680BC7C
:1025C000704700BF7C00002080B483B000AF03469A
:1025D0003960FB713B6804221A80034B18460C37A4
:1025E000BD4680BC704700BF9C00002080B582B013
:1025F00000AF03463960FB713A680449044801F0B2
:102600006DF8024B18460837BD4680BDFC07002018
:10261000444C000880B582B000AF03463960FB71BE
:102620003A680449044801F059F8024B1846083743
:10263000BD4680BDFC070020684C000880B582B014
:1026400000AF03463960FB713A680449044801F061
:1026500045F8024B18460837BD4680BDFC070020F0
:102660007C4C000880B582B000AF03463960FB7136
:102670003A680449044801F031F8024B184608371B
:10268000BD4680BDFC0700208C4C000880B582B0A0
:1026900000AF03463960FB713A680449044801F011
:1026A0001DF8024B18460837BD4680BDFC070020C8
:1026B000984C000880B582B002AF0C4B00930C4BD5
:1026C0000C4A01210C48FFF707F80C4B00221A6056
:1026D0000B4B00221A600B4B00221A600A4B01229E
:1026E0001A7000231846BD4680BD00BF04000020BC
:1026F0001801002060000020080200207C0100205A
:1027000084010020800100204401002080B483B0B7
:1027100000AF7860154B1B68002B1DD0144B1B6855
:102720007F2B02D9124B00221A60114B1B68114AF1
:10273000D25C7B681A700E4B1B680E4A0021D15484
:102740000B4B1B6801330A4A1360084B1B68013BA3
:10275000064A1360032303E07B6800221A700423F7
:1027600018460C37BD4680BC704700BF8001002072
:10277000840100208801002080B584B000AF0346AA
:10278000FB71FB79DBB2FB7307F10F0301211846E4
:1027900000F0C8F9002318461037BD4680BD00BFC1
:1027A00080B483B000AF0346FB71114B1B687F2BD5
:1027B00017D8104B1B687F2B02D90E4B00221A60D2
:1027C0000C4B1B680C49FA79CA540A4B1B6801333D
:1027D000084A1360064B1B680133054A1360002347
:1027E00000E0022318460C37BD4680BC704700BF8E
:1027F000800100207C0100208801002080B487B087
:1028000000AF7860396000237B6100233B610023C7
:10281000FB6000237B6176E001227B6902FA03F30F
:102820003B613B681A683B691340FB60FA683B698F
:102830009A4265D17B681A687B695B00032101FAC3
:1028400003F3DB431A407B681A607B681A683B68B5
:102850001B7919467B695B0001FA03F31A437B6815
:102860001A603B681B79012B03D03B681B79022B54
:102870002ED17B689A687B695B00032101FA03F320
:10288000DB431A407B689A607B689A683B685B7997
:1028900019467B695B0001FA03F31A437B689A606F
:1028A0007B685A687B699BB2194601238B40DB43E6
:1028B0001A407B685A607B685B683A689279114677
:1028C0007A6992B201FA02F292B21A437B685A60B4
:1028D0007B68DA687B699BB25B00032101FA03F332
:1028E000DB431A407B68DA607B68DA683B68DB7937
:1028F00019467B695B0001FA03F31A437B68DA60CF
:102900007B6901337B617B690F2B85D900BF1C3745
:10291000BD4680BC704700BF80B485B000AF786012
:102920000B467B8013467B700023FB600023BB605B
:102930007A787B8803F007039B0002FA03F3FB60BD
:102940007B88DB089BB218467B88DB089BB21A4663
:102950007B68083253F822207B8803F007039B0032
:102960000F2101FA03F3DB4302EA03017B6800F164
:10297000080243F822107B88DB089BB21A467B686A
:10298000083253F82220FB681343BB607B88DB08C6
:102990009BB21A467B680832B96843F8221000BF20
:1029A0001437BD4680BC704780B400AF0023184682
:1029B000BD4680BC704700BF80B400AF00231846FE
:1029C000BD4680BC704700BF80B485B000AFF860E2
:1029D000B9607A60FB68232B00F29B8001A252F859
:1029E00023F000BF132B0008132B0008132B000843
:1029F000132B0008132B0008132B0008132B0008BF
:102A0000132B0008132B0008132B0008132B0008AE
:102A1000132B0008132B0008132B0008132B00089E
:102A2000132B0008132B0008132B0008132B00088E
:102A3000132B0008132B0008132B0008132B00087E
:102A4000132B0008132B0008132B0008132B00086E
:102A5000132B0008132B0008132B0008132B00085E
:102A6000132B0008752A0008BF2A0008132B000842
:102A7000132B0008BB681B781A46BB6801331B7810
:102A80001B021A43BB6802331B781B041A43BB6842
:102A900003331B781B0613431A46214B1A60BB688D
:102AA0001A791F4B1A71BB685A791D4B5A71BB6852
:102AB0009A791B4B9A711A4B0122DA712AE0184B52
:102AC0001B68DAB2BB681A70BB680133144A12681B
:102AD000120AD2B21A70BB680233114A1268120C81
:102AE000D2B21A70BB6803330D4A1268120ED2B20A
:102AF0001A70BB6804330A4A12791A70BB6805332E
:102B0000074A52791A70BB680633054A92791A70DF
:102B100000E000BF002318461437BD4680BC704754
:102B2000A000002080B485B000AF78603960002339
:102B3000FB6017E0104B1B687968FA680A4411784B
:102B40000E4AD1540C4B1B6801330B4A13600A4BDD
:102B50001B68B3F5006F02D3074B00221A60FB68B5
:102B60000133FB60FA683B689A42E3D300231846BE
:102B70001437BD4680BC70475C01002088090020E6
:102B800080B584B000AF786039600023FB6009E055
:102B90007A68FB6813441B781846FFF701FEFB6850
:102BA0000133FB60FA683B689A42F1D30023184670
:102BB0001037BD4680BD00BF80B500AF124A124B32
:102BC0001B6843F0010313600F4B00229A600E4A0A
:102BD0000D4B1B6823F0847323F4803313600A4B7E
:102BE0000A4A5A60084A084B1B6823F48023136082
:102BF000054B0022DA6000F00DF8054B4FF0006243
:102C00009A6000BF80BD00BF003802401030002431
:102C100000ED00E080B483B000AF00237B600023B0
:102C20003B60354A344B1B6843F480331360324BAE
:102C30001B6803F400333B607B6801337B603B68B7
:102C4000002B03D17B68B3F5A06FF0D12A4B1B6832
:102C500003F40033002B02D001233B6001E000238A
:102C60003B603B68012B42D1234A234B1B6C43F052
:102C700080531364214A214B1B6843F48043136043
:102C80001D4A1D4B9B6893601B4A1B4B9B6843F47A
:102C900000439360184A184B9B6843F4A053936019
:102CA000154B174A5A60144A134B1B6843F0807344
:102CB000136000BF104B1B6803F00073002BF9D0AA
:102CC000104B40F205621A600B4A0B4B9B6823F0D5
:102CD00003039360084A084B9B6843F00203936028
:102CE00000BF054B9B6803F00C03082BF9D100BF14
:102CF0000C37BD4680BC7047003802400070004071
:102D000008544007003C024080B584B000AF7860B2
:102D100001210120FFF7E0F84FF4C053BB6003230B
:102D20007B7302233B730023BB730023FB7307F108
:102D3000080319461F48FFF761FD0A220B211D48B1
:102D4000FFF7EAFD0A220C211A48FFF7E5FD4FF4D0
:102D50000073BB6003237B7300233B730123BB73AE
:102D60000023FB7307F1080319461248FFF746FDDD
:102D70004FF48063BB600123BB730123FB73032308
:102D80007B7307F1080319460A48FFF737FD0A224B
:102D90000A210848FFF7C0FD01214FF48040FFF7EA
:102DA000F5F801218020FFF7B5F800BF1037BD46C8
:102DB00080BD00BF0000024080B584B000AF7860E5
:102DC0004FF4C06001F0F8FB43233B7301237B7396
:102DD0000323BB730123FB7307F10C03184601F0B7
:102DE000FDFB00BF1037BD4680BD00BF80B485B07D
:102DF00000AF78600023FB607A6813461B019B1AC2
:102E0000DB001A460A4BA3FB0213D21A52081344E2
:102E10009B08BB60FB680133FB60FA68BB689A42A1
:102E200000D8F7E700BF1437BD4680BC704700BF2D
:102E30002549922480B582B000AF78607B684FF45A
:102E40007A7202FB03F31846FFF7D0FF00BF083782
:102E5000BD4680BD80B500AF4FF4802001F09EFBE1
:102E600000BF80BD80B500AF024800F093FC00BFFA
:102E700080BD00BF0802002080B584B000AF78603C
:102E800039600023FB733B685B78092B39D801A2BA
:102E900052F823F0E52E0008F92E0008032F000851
:102EA000EF2E0008032F0008C72E0008BD2E0008D3
:102EB000032F0008DB2E0008D12E0008396878683F
:102EC00000F036F922E03968786800F005FA1DE074
:102ED0003968786800F03EFA18E03968786800F0E0
:102EE000B3FA13E03968786800F0DEFA0EE039686A
:102EF000786800F003FB09E03968786800F06AFB45
:102F000004E03968786800F0D5FB00BFFB7B184609
:102F10001037BD4680BD00BF80B584B000AF78607B
:102F200039600023FB737B6893F81231032B1BD1AC
:102F30003B689B88DBB2012B11D87B68D3F8E43562
:102F40009B683968786898473B68DB88002B10D10C
:102F5000FB7B002B0DD1786801F038FE09E0396861
:102F6000786800F0A7FB04E03968786800F0A2FBFD
:102F700000E000BFFB7B18461037BD4680BD00BF98
:102F800080B584B000AF786039600023FB733B6884
:102F90009B88BB733B685B78012B39D0032B02D035
:102FA000002B6CD0BDE07B6893F81231022B02D06D
:102FB000032B0CD025E0BB7B002B27D0BB7B802BC9
:102FC00024D0BB7B1946786801F0FEFC1EE03B680C
:102FD0005B88002B0AD1BB7B002B07D0BB7B802BEF
:102FE00004D0BB7B1946786801F0EEFC7B68D3F80F
:102FF000E4359B68396878689847786801F0E6FDA1
:1030000005E03968786800F055FB00E000BF88E013
:103010007B6893F81231022B02D0032B0CD025E0F1
:10302000BB7B002B27D0BB7B802B24D0BB7B1946DE
:10303000786801F0C9FC1EE03B685B88002B1CD15E
:10304000BB7B002B0ED0BB7B802B0BD0BB7B1946F0
:10305000786801F0F7FC7B68D3F8E4359B68396841
:1030600078689847786801F0B1FD06E039687868BB
:1030700000F020FB02E000BF53E000BF51E07B689E
:1030800093F81231022B02D0032B0CD042E0BB7B11
:10309000002B44D0BB7B802B41D0BB7B194678688A
:1030A00001F092FC3BE097F90E30002B15DABB7B68
:1030B00003F07F02796813469B001344DB000B4446
:1030C00003F58F731B78002B03D0184B01221A6075
:1030D0001AE0164B00221A6016E097F90E30002B0A
:1030E00012DBBA7B796813469B001344DB000B4468
:1030F00003F276331B78002B03D00C4B01221A60AD
:1031000002E00A4B00221A6002220849786801F0A6
:10311000F5FC05E03968786800F0CCFA00E000BF03
:1031200000BFFB7B18461037BD4680BD480100201C
:1031300080B584B000AF786039603B685B881B0A5B
:103140009BB2013B062B00F2A98001A252F823F0AA
:103150006D3100089D310008C53100089D3200081E
:103160009D32000889320008933200087B68D3F84A
:10317000EC351B687A68927807F10A011046984787
:10318000F8603B68DB88402B05D07B6893F81231F0
:10319000012B40F0888008237B8184E07B68D3F892
:1031A000E4359B6A7A68927807F10A0110469847DD
:1031B000F860FB68013302221A707B68FA68C3F872
:1031C000F02571E03B685B88DBB2052B56D801A285
:1031D00052F823F0ED310008053200081D320008D6
:1031E000353200084D320008653200087B68D3F89C
:1031F000EC355B687A68927807F10A0110469847C7
:10320000F86040E07B68D3F8EC359B687A68927888
:1032100007F10A0110469847F86034E07B68D3F85C
:10322000EC35DB687A68927807F10A011046984716
:10323000F86028E07B68D3F8EC351B697A689278EF
:1032400007F10A0110469847F8601CE07B68D3F844
:10325000EC355B697A68927807F10A011046984765
:10326000F86010E07B68D3F8EC359B697A68927857
:1032700007F10A0110469847F86004E03968786859
:1032800000F018FA25E00FE03968786800F012FACB
:103290001FE03968786800F00DFA1AE0396878683C
:1032A00000F008FA15E000BF7B89002B11D03B68C5
:1032B000DB88002B0DD03B68DA887B89934228BFDE
:1032C00013469BB27B817B891A46F968786801F0C6
:1032D00015FC1037BD4680BD80B584B000AF786066
:1032E00039603B689B88002B2CD13B68DB88002B26
:1032F00028D13B685B88DBB203F07F03FB737B68FC
:1033000093F81231032B04D13968786800F0D2F9B0
:103310001CE07B68FA7B83F81421FB7B19467868F4
:1033200001F0CEFB786801F051FCFB7B002B04D050
:103330007B68022283F8122108E07B68012283F86F
:10334000122103E03968786800F0B4F900BF103743
:10335000BD4680BD80B582B000AF786039603B6803
:103360005B88DAB2374B1A70364B1B78012B04D9C5
:103370003968786800F09EF95FE07B6893F8123155
:10338000022B02D0032B1BD052E02E4B1B78002BBC
:1033900012D02C4B1A787B6883F810217B680322AB
:1033A00083F81221274B1B7819467868FEF76EFBCD
:1033B000786801F00BFC40E0786801F007FC3CE025
:1033C000204B1B78002B12D17B68022283F812213C
:1033D0001C4B1A787B6883F810211A4B1B7819460E
:1033E0007868FEF76BFB786801F0F0FB25E07B68FE
:1033F00093F81021134B1B789A4215D07B6893F8F1
:10340000103119467868FEF759FB0E4B1A787B6825
:1034100083F810210B4B1B7819467868FEF736FBB2
:10342000786801F0D3FB08E0786801F0CFFB04E096
:103430003968786800F03EF900BF00BF0837BD4624
:1034400080BD00BF5401002080B582B000AF78601D
:1034500039603B68DB88012B04D03968786800F05C
:1034600029F91BE07B6893F81231022B02D0032B61
:1034700006D00EE001220B49786801F03FFB0DE019
:103480007B6803F5887301221946786801F036FBE2
:1034900004E03968786800F00DF900BF00BF083714
:1034A000BD4680BD4C01002080B582B000AF786081
:1034B00039607B6893F81231023B012B13D80E4B15
:1034C00001221A607B68D3F81831002B05D00A4B13
:1034D0001B6843F00203084A136002220649786819
:1034E00001F00CFB04E03968786800F0E3F800BFF5
:1034F00000BF0837BD4680BD5001002080B584B0B4
:1035000000AF786039600023FB733B685B88012B58
:103510000ED17B680122C3F818217B68D3F8E4350B
:103520009B68396878689847786801F04FFB4BE0F2
:103530003B685B88022B47D13B689B88DBB2002B42
:1035400042D17B681B695B68BB603B689B881B0A38
:103550009BB2FB73FB7B013B042B2BD801A252F8DF
:1035600023F000BF79350008853500089135000843
:103570009D350008A93500083B7A012262F3061345
:103580003B7217E03B7A022262F306133B7211E0B2
:103590003B7A032262F306133B720BE03B7A042270
:1035A00062F306133B7205E03B7A052262F30613D1
:1035B0003B7200BF064ABB6813607B68012283F838
:1035C0001621786801F002FB00BF1037BD4680BDB0
:1035D0007401002080B582B000AF786039607B68EC
:1035E00093F81231023B012B12D83B685B88012B08
:1035F00013D17B680022C3F818217B68D3F8E43527
:103600009B68396878689847786801F0DFFA04E0C9
:103610003968786800F04EF800E000BF00BF083756
:10362000BD4680BD80B483B000AF786039607B68F0
:1036300093F8CC253B681A707B6893F8CD253B68DE
:103640005A707B6893F8CE359AB27B6893F8CF3581
:103650009BB21B029BB213449AB23B685A807B68B0
:1036600093F8D0359AB27B6893F8D1359BB21B02A0
:103670009BB213449AB23B689A807B6893F8D23528
:103680009AB27B6893F8D3359BB21B029BB213446A
:103690009AB23B68DA803B68DB881A467B68C3F8DD
:1036A00040217B68012283F8112100BF0C37BD4601
:1036B00080BC704780B582B000AF786039608021EF
:1036C000786801F081F90021786801F07DF9786867
:1036D000FDF71EFE00BF0837BD4680BD80B586B031
:1036E00000AFF860B9607A600023FB75FB68002BBF
:1036F00033D0F86800F036F8034601339BB25B0024
:103700009AB27B681A80FB7D5A1CFA751A46BB6810
:1037100013447A681288D2B21A70FB7D5A1CFA756B
:103720001A46BB68134403221A7012E0FB7D5A1C30
:10373000FA751A46BB681A44FB68591CF9601B7875
:103740001370FB7D5A1CFA751A46BB68134400229D
:103750001A70FB681B78002BE8D100BF1837BD46F4
:1037600080BD00BF80B485B000AF78600023FB73DC
:1037700005E0FB7B0133FB737B6801337B607B6877
:103780001B78002BF5D1FB7B18461437BD4680BC57
:10379000704700BF80B586B000AF786000237B61C2
:1037A0007868FCF7F7FF0346002B00F09C807868F0
:1037B000FDF702F803463B613B69002B01D1002372
:1037C00092E0BB7C03F00803DBB2002B06D07868E4
:1037D00000F0FAF902467B6913437B61BB7C03F07E
:1037E0000403DBB2002B06D0786800F01FF9024614
:1037F0007B6913437B613B7C03F00203DBB2002B4C
:1038000009D00023FB603B7B43F002033B737B68E2
:10381000DB68FA685A61FB7C23F07F03DBB2002B84
:1038200006D0786800F064F802467B6913437B6138
:103830007B7C03F00803DBB2002B06D0786800F035
:1038400097F802467B6913437B613B7C03F00803D6
:10385000DBB2002B06D0786800F05EFA02467B6986
:1038600013437B613B7C03F01003DBB2002B06D0DB
:10387000786800F06BFA02467B6913437B617B7CBE
:1038800003F01003DBB2002B06D0786800F052FB87
:1038900002467B6913437B617B7C03F02003DBB230
:1038A000002B06D0786800F0D5FB02467B691343F5
:1038B0007B61BB7C03F01003DBB2002B06D0786881
:1038C00000F004FC02467B6913437B61BB7C03F080
:1038D0002003DBB2002B06D0786800F011FC024612
:1038E0007B6913437B617B6918461837BD4680BDF1
:1038F00080B586B000AF78607B689B7A002B11D0D2
:103900007B6803F586731B68FB603B7B6FF34103A9
:103910003B733B7B6FF300033B737B68D3F80C3145
:10392000FA681A6000233B613B7C43F001033B745F
:103930007B681B697A68126951683A69D2430A4008
:103940005A600A4B1B689B697868984700237B6123
:10395000FB7D43F08003FB757B68DB687A695A6105
:10396000012318461837BD4680BD00BF4C0000201B
:1039700080B586B000AF78600023FB727B6893F857
:103980001231FB72274B1B685B69786898477B682C
:103990001B699B68FB6000237B617B7D43F0080310
:1039A0007B757B68DB687A695A617B689B7A002B40
:1039B00032D03B7B03F00103DBB2002B2CD07B68C1
:1039C00093F81531012B27D1FB7ADBB2032B23D1DE
:1039D00000233B613B7C43F001033B747B68D3F8DD
:1039E0000C317A68D2F80C2111683A690A431A60DE
:1039F0003B7C43F002033B747B68D3F80C317A685C
:103A0000D2F80C2111683A690A431A60064A064B3B
:103A10001B6943F006031361012318461837BD469E
:103A200080BD00BF4C00002000ED00E080B586B0F6
:103A300000AF786000233B610023BB607868FDF72E
:103A400051FC7861B4E07B6903F00103002B00F0C6
:103A5000A9803B69DBB21946786800F06BFB03462E
:103A6000BB603B7A03F00103DBB2002B32D00122B2
:103A70003B6902FA03F3FB607B681B697A68126991
:103A8000516BFA68D2430A405A630023BB603B7A09
:103A900043F001033B727A683B6904339B00134493
:103AA0009B68BA689A60474B1B685B683A69D2B2F8
:103AB0001146786898477B68DB78012B0AD13B690F
:103AC000002B07D17B6893F81131042B02D1786861
:103AD000FDF71EFC3B7A03F00803DBB2002B0DD090
:103AE0000023BB603B7A43F008033B727A683B6972
:103AF00004339B0013449B68BA689A603B7A03F0D6
:103B00001003DBB2002B0DD00023BB603B7A43F0E7
:103B100010033B727A683B6904339B0013449B6833
:103B2000BA689A603B7A03F04003DBB2002B0DD0F9
:103B30000023BB603B7A43F040033B727A683B69E9
:103B400004339B0013449B68BA689A603B7A03F085
:103B50000203DBB2002B0DD00023BB603B7A43F0A5
:103B600002033B727A683B6904339B0013449B68F1
:103B7000BA689A603B7A23F07F03DBB2002B11D046
:103B80003969786800F064F90023BB603B7A43F040
:103B900080033B727A683B6904339B0013449B6843
:103BA000BA689A603B6901333B617B695B087B6162
:103BB0007B69002B7FF447AF012318461837BD46B9
:103BC00080BD00BF4C00002080B586B000AF78609B
:103BD00000233B610023FB607868FDF753FB7861AD
:103BE0008FE07B6903F00103002B00F084803B69C8
:103BF000DBB219467868FDF75BFB0346FB603B7B55
:103C000003F00103DBB2002B48D00023FB603B7BB9
:103C100043F001033B737A683B6914339B00134400
:103C20005B68FA689A607B68DB78012B1FD17A6841
:103C30003B6914339B0013445B681B69BB60796864
:103C40003A6913469B001344DB000B4403F55F7392
:103C50001B68BA68C2F31202991A78683A69134667
:103C60009B001344DB00034403F563731960294B85
:103C70001B681B683A69D2B21146786898477B681E
:103C8000DB78012B0AD13B69002B07D17B6893F8C5
:103C90001131052B02D17868FDF73AFB3B7B03F02D
:103CA0000203DBB2002B0DD00023FB603B7B43F013
:103CB00002033B737A683B6914339B0013445B68CF
:103CC000FA689A603B7B03F00803DBB2002B12D04A
:103CD000104B1B689B68786898470023FB603B7B10
:103CE00043F008033B737A683B6914339B00134429
:103CF0005B68FA689A603B6901333B617B695B08EA
:103D00007B617B69002B7FF46CAF01231846183769
:103D1000BD4680BD4C00002080B584B000AF786007
:103D2000094B1B68DB68786898470023FB603B7B86
:103D300043F008033B737B68DB68FA685A61012330
:103D400018461037BD4680BD4C00002080B586B0B7
:103D500000AF786000233B613B7C43F010033B7471
:103D60007B68DB687A68D26891693A69D2430A4015
:103D70009A617B68DB681B6AFB603B7BC3F30303D0
:103D8000DBB21A4613469B001344DB0003F55C7359
:103D90007A68134404337B61BB7BC3F34303DBB218
:103DA000013B052B44D801A252F823F0313E000814
:103DB000C53D0008313E0008313E0008313E000894
:103DC0000D3E0008BA8947F6F07313409BB2002BF2
:103DD00030D07B69D968BB89C3F30A139BB21A46FA
:103DE0007868FCF775FA7B69DB68BA89C2F30A1256
:103DF00092B21A447B69DA607B699B69BA89C2F323
:103E00000A1292B21A447B699A6113E07B6803F24A
:103E1000CC53082219467868FCF75AFA7B699B69EB
:103E2000BA89C2F30A1292B21A447B699A6102E01B
:103E300000BF00E000BF7B68DB687A68D2689169E8
:103E40003A690A439A61012318461837BD4680BD76
:103E500080B586B000AF7860396000237B610023B5
:103E6000BB603A6813469B001344DB0003F58C7378
:103E70007A6813440433FB60FB685A69FB689B69EA
:103E8000D31A7B61FB689A687B699A4202D2FB680D
:103E90009B687B617B6903339B083B617A683B6865
:103EA00004339B0013449B689B69BB602EE0FB6856
:103EB0005A69FB689B69D31A7B61FB689A687B69C6
:103EC0009A4202D2FB689B687B617B6903339B0843
:103ED0003B61FB68D9683B68DAB27B699BB2786862
:103EE000FCF7BCF9FB68DA687B691A44FB68DA60A6
:103EF000FB689A697B691A44FB689A617A683B6837
:103F000004339B0013449B689B69BB603B891A4642
:103F10003B699A4209D9FB689A69FB685B699A42D6
:103F200003D2FB685B69002BC1D101231846183707
:103F3000BD4680BD80B58AB000AF786000233B618C
:103F400000233B620023FB610023BB6100237B61F4
:103F50000023FB603B7C43F001033B747B681B69DF
:103F60007A68126951683A69D2430A405A6000215E
:103F70007868FCF767FB00237B6212E07A687B6A53
:103F800004339B0013449B68FF229A607A687B6A23
:103F900014339B0013445B68FF229A607B6A0133F1
:103FA0007B627B685B781A467B6A9A42E6D87B68BC
:103FB0001B694FF0FF329A6101233B8401237B840C
:103FC0007B681B693A6ADA613B7F43F008033B7701
:103FD0003B7F43F001033B773B7F43F002033B779A
:103FE0007B681B69FA695A613B7E43F001033B76AB
:103FF0003B7E43F008033B763B7E43F002033B7677
:104000007B681B69BA691A617B681B691B687B61E5
:10401000BB8A6FF30A13BB827B681B697A691A60DB
:104020007868FDF775F90023FB607B7B43F0100394
:104030007B737B68DB68FA685A61054B1B681B69F8
:1040400078689847012318462837BD4680BD00BFD1
:104050004C00002080B584B000AF78607868FCF731
:104060007FFD7B68DB68DB68BB607868FCF754FD2C
:104070000346032B0CD17B6800229A707B684FF4B7
:1040800000729A807B7A092262F385037B720AE0D0
:104090007B6801229A707B6840229A807B7A052295
:1040A00062F385037B727B68DB68BA68DA600023A1
:1040B000FB607B7B43F020037B737B68DB68FA68E3
:1040C0005A61012318461037BD4680BD80B584B0C3
:1040D00000AF78600023FB60084B1B68DB697868E1
:1040E0009847BB7B43F01003BB737B68DB68FA68BF
:1040F0005A61012318461037BD4680BD4C00002090
:1041000080B584B000AF78600023FB60084B1B686B
:104110001B6A78689847BB7B43F02003BB737B68BE
:10412000DB68FA685A61012318461037BD4680BD26
:104130004C00002080B487B000AF78600B46FB7065
:104140007B681B691B697B617B681B695B6B3B61DF
:10415000FB783A6922FA03F3DB01DBB27A69134395
:104160007B61FB787A6804339B0013449B689A68F0
:104170007B691340FB60FB6818461C37BD4680BC5A
:10418000704700BF80B584B000AF78600B46FB700D
:10419000022340228121786800F004FB02234022A0
:1041A0000121786800F0FEFA032308228221786852
:1041B00000F0F8FA0B4BFB60FB68043302221A7024
:1041C000FB68053300221A70074B1B689847402391
:1041D000064A0121786800F079FB00231846103761
:1041E000BD4680BD7C000020A800002040090020C2
:1041F00080B582B000AF78600B46FB708121786893
:1042000000F028FB0121786800F024FB8221786807
:1042100000F020FB034B5B689847002318460837E3
:10422000BD4680BDA800002080B584B000AF786096
:1042300039603A23FB813F4BBB603B681B7803F03E
:104240006003002B3DD0202B35D13B68DB88002B51
:1042500027D03B681B785BB2002B10DA364B9B688B
:104260003A68527810463A68D288344998473B6891
:10427000DB881A463149786800F040FC19E03B6859
:104280005B781A462E4B1A603B68DB881A462D4B2A
:104290001A603B68DB881A462849786800F062FC9F
:1042A00007E0254B9B683A685278104600220021AF
:1042B000984700233AE039687868FFF7FBF9022352
:1042C00034E03B685B780A2B18D00B2B1CD0062BF4
:1042D0002BD13B685B881B0A9BB2212B07D11A4B61
:1042E000BB603B68DB883A2B28BF3A23FB81FB8904
:1042F0001A46B968786800F001FC16E001221349FB
:10430000786800F0FBFB10E03B685B88DBB2002BB9
:1043100006D13B685B88DBB21A460C4B1A6003E09F
:1043200039687868FFF7C6F900BF002318461037D0
:10433000BD4680BDD9000020A800002080090020D3
:10434000140100206C010020E20000205801002030
:1043500080B582B000AF7860094B1B68FF2B0AD094
:10436000084B9B68064A1068074A12680749984735
:10437000034BFF221A60002318460837BD4680BD54
:1043800014010020A80000206C01002080090020FA
:1043900080B584B000AF78600B46FB701E4B1B7875
:1043A000012B33D11D4B1B68002B03D11A4B00226C
:1043B0001A702BE0194B1B68402B0FD9184B1B6848
:1043C000FB814023BB81164B1B684033144A1360AA
:1043D000124B1B68403B114A13600FE0104B1B68E7
:1043E000FB810E4B1B68BB810D4B1A680B4B1B6886
:1043F00013440B4A1360094B00221A60FB89094AD7
:104400001A44BB898121786800F0A2FA002318467B
:104410001037BD4680BD00BF680100206401002048
:10442000600100208809002080B584B000AF78606A
:104430000B46FB70FA78796813469B001344DB0047
:104440000B4403F563731B68FB81084B1B69FA89F6
:104450001146074898474023054A0121786800F033
:1044600035FA002318461037BD4680BDA80000204D
:104470004009002080B582B000AF7860084B1B680F
:104480005A1C07490A60052B05D1054B00221A600A
:10449000786800F007F8002318460837BD4680BD4D
:1044A0007001002080B584B000AF78602D4B1B7880
:1044B000012B54D02C4B1B68B3F5006F02D12A4B53
:1044C00000221A60284B1A68284B1B689A4203D1B5
:1044D000244B00221A7042E0234B1A68234B1B68BE
:1044E0009A4206D9204B1B68C3F50063204A13602B
:1044F00006E01E4B1A681C4B1B68D31A1C4A13603B
:104500001B4B1B68402B0FD9174B1B68FB814023AB
:10451000BB81154B1B684033134A1360144B1B6857
:10452000403B134A13600FE00F4B1B68FB81104B9D
:104530001B68BB810C4B1A680D4B1B6813440A4A5D
:1045400013600B4B00221A60064B01221A70FB8984
:10455000084A1A44BB898121786800F0F9F91037BC
:10456000BD4680BD68010020600100205C01002084
:10457000640100208809002080B483B000AF0346A6
:104580003960FB713B6843221A80034B18460C3795
:10459000BD4680BC704700BFD000002080B483B00F
:1045A00000AF7860034A7B68536100BF0C37BD469B
:1045B00080BC7047003C014080B483B000AF78609D
:1045C000054A7B6843F0BF6343F40033D36000BF08
:1045D0000C37BD4680BC704700ED00E080B485B06C
:1045E00000AF78600023FB730023BB730F237B7342
:1045F0007B68DB78002B38D0264BDB68DB4303F489
:10460000E0631B0AFB73FB7BC3F10403BB737A7B80
:10461000FB7B42FA03F37B737B685B781A46BB7BB8
:1046200002FA03F3FB737B689A787B7B1340DAB260
:10463000FB7B1343FB73FB7B1B01FB73164A7B68FD
:104640001B781344FA7B83F80023134A7B681B789A
:104650005B09DBB218467B681B7803F01F0301215E
:1046600001FA03F342F820300FE00B497B681B7816
:104670005B09DBB218467B681B7803F01F0301223D
:104680009A4000F1200341F8232000BF1437BD46B3
:1046900080BC704700ED00E000E100E080B584B030
:1046A00000AF78600B46FB70FB7819467868FBF723
:1046B0003BFE7B68012283F812217B68002283F88D
:1046C00014210023FB6024E0FA6813469B00134486
:1046D000DB0003F58C737A6813440433BB60BB685A
:1046E00001225A70FB68DAB2BB681A70FB689AB292
:1046F000BB68DA80BB680022DA70BB6840229A602F
:10470000BB680022DA60BB6800225A61FB68013393
:10471000FB607B685B781A46FB689A42D4D800231A
:10472000FB6024E0FA6813469B001344DB0003F5AA
:104730005C737A6813440433BB60BB6800225A7010
:10474000FB68DAB2BB681A70FB689AB2BB68DA80A1
:10475000BB680022DA70BB6840229A60BB68002206
:10476000DA60BB6800225A61FB680133FB607B683A
:104770005B781A46FB689A42D4D87868FBF746FF04
:104780007868FBF78BFE00217868FBF7C5FF786837
:10479000FCF744F87868FBF71FFF00BF1037BD46F1
:1047A00080BD00BF80B584B000AF78600846114678
:1047B0001A460346FB700B463B801346BB7097F9C5
:1047C0000330002B0DDAFB7803F07F0213469B00C9
:1047D0001344DB0003F58C737A6813440433FB60E5
:1047E0000CE0FB7803F07F0213469B001344DB00D0
:1047F00003F55C737A6813440433FB60FB7803F0C1
:104800007F03DAB2FB681A7097F90330DBB2DB0979
:10481000DBB21A46FB685A703A88FB689A60FB68FC
:10482000BA78DA70FB685B78002B04D0FB681B78E1
:104830009AB2FB68DA80BB78022B02D1FB680022B7
:104840001A71F9687868FCF7C5F900231846103723
:10485000BD4680BD80B584B000AF78600B46FB706C
:1048600097F90330002B0DDAFB7803F07F02134633
:104870009B001344DB0003F58C737A681344043304
:10488000FB600CE0FB7803F07F0213469B001344AF
:10489000DB0003F55C737A6813440433FB60FB7838
:1048A00003F07F03DAB2FB681A7097F90330DBB2CA
:1048B000DB09DBB21A46FB685A70F9687868FCF7C6
:1048C000F7F9002318461037BD4680BD80B586B085
:1048D00000AFF8607A601A460B46FB7213463B81C4
:1048E000FB7A03F07F0213469B001344DB0003F5C1
:1048F0005C73FA68134404337B617B697A68DA601D
:104900003A897B695A617B6900229A617B6900223E
:104910005A70FB7A03F07F03DAB27B691A70FB6886
:10492000DB78012B02D17A687B691A617B691B787D
:10493000002B04D17969F868FCF73EFB03E0796944
:10494000F868FCF7F9F9002318461837BD4680BD12
:1049500080B586B000AFF8607A603B600B46FB72B2
:10496000FB7A03F07F0213469B001344DB0003F540
:104970008C73FA68134404337B617B6901225A709B
:10498000FB7A03F07F03DAB27B691A707B697A687D
:10499000DA607A687B691A617B6900229A617B69B7
:1049A0003A685A617B691B78002B04D17969F868F1
:1049B000FCF702FB03E07969F868FCF7BDF9002316
:1049C00018461837BD4680BD80B584B000AF78600A
:1049D0000B46FB7097F90330002B0DDAFB7803F0E0
:1049E0007F0213469B001344DB0003F58C737A6847
:1049F00013440433FB600AE0FA7813469B00134427
:104A0000DB0003F55C737A6813440433FB60FB68D6
:104A100001229A70FB7803F07F03DAB2FB681A7008
:104A200097F90330DBB2DB09DBB21A46FB685A7038
:104A3000F9687868FCF7AAFB002318461037BD46D2
:104A400080BD00BF80B584B000AF78600B46FB70BE
:104A500097F90330002B0DDAFB7803F07F02134641
:104A60009B001344DB0003F58C737A681344043312
:104A7000FB600AE0FA7813469B001344DB0003F561
:104A80005C737A6813440433FB60FB6800229A70FD
:104A9000FB7803F07F03DAB2FB681A7097F90330F2
:104AA000DBB2DB09DBB21A46FB685A70F96878683A
:104AB000FCF7AEFB002318461037BD4680BD00BF93
:104AC00080B485B000AF78600B46FB700023FB60BC
:104AD000FB7803F07F03DAB2BB8962F30A13BB8170
:104AE0007B681B697A6812691168FA680A431A6060
:104AF00000BF1437BD4680BC704700BF80B586B08C
:104B000000AFF860B9601346FB800023FB75FA889C
:104B1000FB68C3F83C21FA88FB68C3F83821FB68BE
:104B2000022283F81121FB88BA680021F868FFF798
:104B30000FFFFB7D18461837BD4680BD80B586B097
:104B400000AFF860B9601346FB800023FB75FB885B
:104B5000BA680021F868FFF7FBFEFB7D184618379E
:104B6000BD4680BD80B586B000AFF860B960134621
:104B7000FB800023FB75FA88FB68C3F89423FA884E
:104B8000FB68C3F89023FB68032283F81121FB889C
:104B9000BA680021F868FFF799FEFB7D18461837C0
:104BA000BD4680BD80B586B000AFF860B9601346E1
:104BB000FB800023FB75FB88BA680021F868FFF7CB
:104BC00085FEFB7D18461837BD4680BD80B584B094
:104BD00000AF78600023FB737B68042283F8112107
:104BE0000023002200217868FFF7B2FE7868FCF706
:104BF0008FFBFB7B18461037BD4680BD80B584B067
:104C000000AF78600023FB737B68052283F81121D5
:104C10000023002200217868FFF758FE7868FCF72F
:104C200077FBFB7B18461037BD4680BD73797374E4
:104C3000656D20636F726520636C6F636B3D2564E7
:104C40000000000053544D33322056697274756170
:104C50006C20436F6D506F727420696E2046532034
:104C60004D6F64650000000053544D6963726F65B9
:104C70006C656374726F6E6963730000303030303E
:104C80003030303030353043000000005643502083
:104C9000436F6E666967000056435020496E746525
:064CA0007266616365000D
:104CA600050000008113000899130008B9130008D5
:104CB600D1130008E91300080114000819140008AC
:104CC600B11700087D18000845170008611A00088A
:104CD600BD190008311A0008011A0008E51A000873
:104CE600051B000800000000000000002000002056
:104CF600000000000102030401020304060708097C
:104D0600A5250008C925000815260008ED25000878
:104D16003D260008652600088D26000812010002BF
:104D26000000004083044057000201020301000016
:104D36000A06000200000040010000000403090406
:104D460000C2010000000801A9290008B9290008CD
:104D5600C9290008252B0008812B0008007A030AC0
:104D66000000000000000000010203040607080915
:104D760009024300020100C03209040000010202D8
:104D8600010005240010010524010001042402028B
:104D96000524060001070582030800FF0904010037
:104DA600020A000000070501024000000705810213
:104DB60040000000FF00000085410008F1410008A6
:104DC60029420008000000005143000891430008F2
:104DD6002944000875440008000000000000000097
:044DE6007945000803
:0400000508000000EF
:00000001FF
